:020000040800F2
:100000000020002029180008710600087306000867
:1000100000000000000000000000000000000000E0
:10002000000000000000000000000000750600084D
:1000300000000000000000007706000879060008B4
:1000400079180008000000007918000879180008E5
:10005000791800087918000879180008791800083C
:1000600000000000791800087918000879180008C5
:1000700079180008810600087918000800000000BF
:1000800079180008791800080000000079180008A5
:1000900079180008791800087918000879180008FC
:1000A00079180008791800087918000879180008EC
:1000B00079180008000000000000000000000000A7
:1000C000002243088B4274D303098B425FD3030A97
:1000D0008B4244D3030B8B4228D3030C8B420DD3AA
:1000E000FF22090212BA030C8B4202D31212090238
:1000F00065D0030B8B4219D300E0090AC30B8B4276
:1001000001D3CB03C01A5241830B8B4201D38B0323
:10011000C01A5241430B8B4201D34B03C01A5241C8
:10012000030B8B4201D30B03C01A5241C30A8B420B
:1001300001D3CB02C01A5241830A8B4201D38B02F6
:10014000C01A5241430A8B4201D34B02C01A52419A
:10015000030A8B4201D30B02C01A5241CDD2C3090C
:100160008B4201D3CB01C01A524183098B4201D388
:100170008B01C01A524143098B4201D34B01C01A73
:10018000524103098B4201D30B01C01A5241C308EB
:100190008B4201D3CB00C01A524183088B4201D35A
:1001A0008B00C01A524143088B4201D34B00C01A46
:1001B0005241411A00D20146524110467047FFE7B2
:1001C00001B5002000F006F802BDC0460029F7D0B6
:1001D00076E770477047C0460100343138C9043BA8
:1001E0009C461D60A646010020313CC990469946B8
:1001F000A246AB4601000831FCC941680068E546EB
:1002000000BDC0467047C0467047C0467047C046F4
:100210007047C0467047C0467047C0467047C046EA
:100220007047C0467047C0467047C04601B401A839
:1002300001B585B0FFB408A841464A4653465C461E
:1002400065463EC001A83EC80F98009000230CB43C
:1002500001A901F071FD109B12B0184701B401A86B
:1002600001B585B0FFB408A841464A4653465C46EE
:1002700065463EC001A83EC80F98009000230CB40C
:1002800001A901F08DFD109B12B0184701B401A81F
:1002900001B585B0FFB408A841464A4653465C46BE
:1002A00065463EC001A83EC80F98009000230CB4DC
:1002B00001A901F099FD109B12B0184701B401A8E3
:1002C00001B585B0FFB408A841464A4653465C468E
:1002D00065463EC001A83EC80F98009000230CB4AC
:1002E00001AB01F053FD109B12B0184701B401A8F7
:1002F00001B585B0FFB408A841464A4653465C465E
:1003000065463EC001A83EC80F98009000230CB47B
:1003100001AA01F0C3FD109B12B0184710B5064C9E
:100320002378002B07D1054B002B02D0044800E0B6
:1003300000BF0123237010BD3C040020000000001A
:100340000C290008044B10B5002B03D003490448C6
:1003500000E000BF10BDC0460000000040040020C7
:100360000C290008F0B589B01422002103A801F07F
:10037000A7FA184B596980208002014359615A69D4
:1003800002400192019A5A69802109030A435A6185
:100390005B690B400293029BC027BF000E4D0022F9
:1003A0003900280000F0C6FC0126039690235B0369
:1003B000049300240594902003A9C00500F0F4FBE9
:1003C000039704960594069403A9280000F0ECFB1B
:1003D00009B0F0BD001002400008004810B58021AF
:1003E0004900024800F0ACFC10BDC04600080048BF
:1003F00010B50268054B9A4200D010BD044800F0C9
:10040000DDFA044B1860FFF7E9FFF6E7002C014026
:100410005C0400205804002072B6FEE700B585B0E9
:100420000C22002101A801F04BFA1748174B03607A
:10043000002343608360C3600122026104214161A3
:10044000037643768276C376C221FF31C1610362AF
:100450009E39FF394354826200F0BEF900280FD163
:100460000123019380235B01029380235B050393A7
:1004700001A9054800F0A6FA002803D105B000BD87
:10048000FFF7CAFFFFF7C8FF5C040020002401400B
:1004900000B587B01022002102A801F011FA08224D
:1004A0000021684601F00CFA1548164B0360164B04
:1004B000436000238360154AC26003614361803357
:1004C000836101F0C1F8002814D180235B010293FD
:1004D00002A90B4801F0F0F800280DD12023009369
:1004E000002301936946064801F06AF9002805D106
:1004F00007B000BDFFF790FFFFF78EFFFFF78CFFFF
:100500009C040020002C0140BF5D0000E7030000B8
:1005100010B590B03022002104A801F0D1F91024C8
:1005200010220021684601F0CBF912230493113BFD
:100530000793099308940A9401330C93A0239B0317
:100540000E9304A800F004FC00280ED107230093AA
:10055000053B01930023029303930121684600F0B9
:100560007DFE002803D110B010BDFFF755FFFFF747
:1005700053FF000010B500F0B5F8FFF7C9FFFFF713
:10058000F1FEFFF74BFFFFF783FF034800F0E6F9AA
:10059000024800F02BFFFEE75C0400209C040020D2
:1005A00082B00A4B996901221143996199690A4005
:1005B0000092009ADA69802149050A43DA61DB6911
:1005C0000B400193019B02B07047C04600100240EF
:1005D00010B588B004001422002103A801F070F9BE
:1005E0002268114B9A4201D008B010BD0F4B996997
:1005F00080208000014399619A6902400192019A2A
:100600005A69802189020A435A615B690B4002934F
:10061000029B02230393013304937138FF3803A92B
:10062000C00500F0C1FADFE70024014000100240DD
:1006300000B583B002680C4B9A4201D003B000BDF4
:100640000A4A916980200001014391619369034046
:100650000193019B002200210D2000F04DFA0D2096
:1006600000F07AFAEAE7C046002C01400010024090
:10067000FEE7FEE77047704710B500F043F810BD85
:1006800010B5024800F0E8FE10BDC0469C040020F2
:100690007047000010B504000F4B1978FA20800055
:1006A000FFF70EFD01000D4B1868FFF709FD00F084
:1006B0005FFA00280DD1032C01D901200AE0013096
:1006C00000222100404200F017FA054B1C60002078
:1006D00000E0012010BDC046040000200000002002
:1006E0000800002010B5064A136810210B43136060
:1006F0000020FFF7CFFFFFF753FF002010BDC046DB
:1007000000200240034A1168034B1B785B181360FA
:100710007047C046E404002004000020014B186824
:100720007047C046E404002030B583B004000023C5
:1007300001930368996803220A40012A14D099683A
:10074000224A114218D19A6801210A439A60204B2B
:1007500018682049FFF7B4FC0190019B002B15D0CD
:10076000019B013B0193F8E71A68D2072BD4DA68A2
:100770001204E4D5002024E0A36B10221343A363EA
:10078000E36B0F3A1343E36301201AE0FFF7C6FF60
:10079000050023681B68DB0712D4FFF7BFFF401B6F
:1007A0000228F6D923681B68DB07F2D4A36B10225A
:1007B0001343A363E36B0F3A1343E363012000E0A9
:1007C000002003B030BD0020FBE7C04617000080CA
:1007D0000000002040420F0070B5041E00D1B4E0BC
:1007E000836B002B00D180E0A36BDB0600D5A6E075
:1007F00022689168042005000D40084200D09EE068
:10080000A16B534B19400633FF331943A163916821
:1008100001330B40012B6ED0D36818218B43A168A4
:100820000B43D360226813699B009B0861680B43EC
:1008300013612268D36847490B40D360237E9B0332
:10084000627ED2031343A17E4A031343A26A012AA4
:1008500058D0802252011343E26813432269022ACE
:1008600052D02B432422A25C52001343E27E012A81
:100870004CD0E269C221FF318A4202D0216A0A4388
:1008800013432168CA681A43CA60E26A8021490595
:100890008A420DD0012A0BD0022A09D0032A07D0A0
:1008A000042A05D0052A03D0062A01D0072A0AD136
:1008B0002068416907229143416120684169E56AE6
:1008C0002A400A4342612268D26823490A409A4278
:1008D0002BD0A36B12229343023A1343A363E36B1F
:1008E0000F3A1343E36301202EE0C36334228354A1
:1008F000FFF76EFE78E71368DB079AD4D3681B0412
:1009000097D489E72A00A6E70425AAE7002903D19E
:10091000802252021343ACE7A26B20210A43A26358
:10092000E26B1F390A43E263A3E70023E363A36B8F
:1009300003229343023A1343A363002004E0A36B12
:1009400010221343A363012070BD0120FCE7C046C1
:10095000FDFEFFFF1902FEFFE7FF3F8310B5040015
:1009600003689B685B0723D43423C35C012B21D02D
:1009700034230122C254437E012B14D10020A36BE7
:100980000D4A1A4080235B001343A3630023E363F3
:100990003422A3542368183A1A6022689368042109
:1009A0000B43936010BDFFF7BFFE0028FAD1E6E7C6
:1009B0000220F7E70220F5E7FEF0FFFF0368186C5E
:1009C0007047000030B583B0040000230193343336
:1009D000C35C012B00D181E034230122C25403689F
:1009E0009A68520770D43E4A4868904253D09A6A37
:1009F00001200D68A84002439A62E36A80225205F2
:100A000093421ED0012B1CD0022B1AD0032B18D0DE
:100A1000042B16D0052B14D0062B12D0072B10D088
:100A200022685069072303408868984209D05069BA
:100A3000072398435061206842698D682B40134317
:100A400043610B681A00103A012A01D9002040E0E6
:100A5000244A1268102B09D08023DB031343214A58
:100A600013600B68102B04D0002032E080231B049D
:100A7000F4E71D4B18681D49FFF722FB83001B1884
:100A80005B00019302E0019B013B0193019B002B62
:100A9000F9D100201DE09A6A01200D68A840824328
:100AA0009A620B681A00103A012A01D9002010E05E
:100AB0000C4A1268102B05D00D4B1340094A1360E5
:100AC000002006E00B4BF8E7836B2022134383637F
:100AD000012034230022E25403B030BD0220FBE7A2
:100AE00001100000082701400000002040420F00D4
:100AF000FFFFBFFFFFFF7FFF70B5002811DB8308FA
:100B0000134EC0339B009D5903242040C000FF2298
:100B100014008440A54389010A4082402A439A5127
:100B200070BD0F230340083B9B0806339B00094A16
:100B3000944663445C6803221040C000FC321500F8
:100B40008540AC4389010A40824022435A60E7E76E
:100B500000E100E000ED00E0002805DB1F23184065
:100B60001E3B8340014A13607047C04600E100E02D
:100B7000013880235B0498420FD2094A506009482B
:100B8000036A1B021B0AC02109060B4303620023F0
:100B9000936007331360002070470120FCE7C046D4
:100BA00010E000E000ED00E0F0B583B0002357E076
:100BB00084685F000326BE40B4432600CC68BC4076
:100BC00034438460446894434A68160901223240E1
:100BD0009A402243426053E0DC080834A4002658BF
:100BE00005321A4092000F279740BE430F69974085
:100BF0003A003243225057E0032600E00026A64088
:100C000034003C4302329200444E9451444A1468EA
:100C1000EA432600AE434F68FF0301D52C4326006C
:100C20003F4C26606468260016404F68BF0301D51C
:100C30002C4326003A4C6660A468260016404F6894
:100C4000FF0201D52C432600354CA660E468224003
:100C50004E68B60201D52A002243314CE2600133CE
:100C60000C682200DA4057D001229A402500154036
:100C70001442F4D003244E683440013C012C97D92F
:100C800003224C682240032A09D0C2685E00032474
:100C9000B440A24314008A68B2402243C2600322D7
:100CA0004C682240022A97D004685E000322170095
:100CB000B740BC434F683A40B24022430260C02272
:100CC00092024C681442CAD0164CA66901221643FF
:100CD000A661A46922400192019A9A08941CA4007A
:100CE0000E4EA75903241C40A4000F26A640B7436C
:100CF0009026F605B04281D00B4EB04208D00B4E84
:100D0000B04207D00A4EB04200D175E7052676E71B
:100D1000012674E7022672E703B0F0BD000001402F
:100D20000004014000100240000400480008004890
:100D3000000C0048002A01D0816170478162FCE705
:100D4000426913000B401B049143194381617047B2
:100D500070B582B0041E00D12EE20368DB0726D5F1
:100D6000AE4B5A680C231340042B18D0AB4B5A6877
:100D70000C231340082B0ED06368012B3CD0002BB2
:100D800051D1A64B1A68A6490A401A601A68A549AB
:100D90000A401A6036E0A14B5B68DB03ECD59F4B41
:100DA0001B689B0303D56368002B00D107E223680F
:100DB0009B0772D5994B5B680C221A425DD0974B0A
:100DC0005A680C231340082B53D0E368002B00D142
:100DD00085E0924A136801210B431360FFF79EFCE4
:100DE00005008E4B1B689B0770D4FFF797FC401BD8
:100DF0000228F6D90320E0E1884A116880235B02CB
:100E00000B4313606368002B25D0FFF787FC0500B8
:100E1000824B1B689B03CAD4FFF780FC401B6428ED
:100E2000F6D90320C9E1052B09D07C4B1A687C490F
:100E30000A401A601A687B490A401A60E2E7774B59
:100E400019688022D2020A431A601968802252026D
:100E50000A431A60D6E7FFF761FC05006F4B1B6879
:100E60009B03A4D5FFF75AFC401B6428F6D9032046
:100E7000A3E16A4B5B68DB03A7D4684B1B689B0745
:100E800003D5E368012B00D09BE164490B68F8228D
:100E900093432269D20013430B6023681B0744D598
:100EA000E369002B2ED05D4A536A01210B43536244
:100EB000FFF734FC0500594B5B6A9B0735D4FFF7FD
:100EC0002DFC401B0228F6D9032076E153490B681C
:100ED000F82293432269D20013430B60DDE74F4AA7
:100EE000136801218B431360FFF718FC05004B4B7F
:100EF0001B689B07D1D5FFF711FC401B0228F6D9D0
:100F000003205AE1454A536A01218B435362FFF79C
:100F100005FC0500414B5B6A9B0706D5FFF7FEFB0E
:100F2000401B0228F6D9032047E123685B0700D461
:100F300080E03A4BDB69DB001DD4384AD169802060
:100F400040050143D161D36903400193019B012511
:100F5000354B1B68DB0510D5A368012B21D0002B76
:100F600036D12E4B1A6A01218A431A621A6A03315A
:100F70008A431A621AE00025EAE72B4A11688023A7
:100F80005B000B431360FFF7C9FB0600264B1B6891
:100F9000DB05E1D4FFF7C2FB801B6428F6D90320F0
:100FA0000BE11E4A136A01210B431362A368002B55
:100FB00024D0FFF7B3FB0600184B1B6A9B0737D4FE
:100FC000FFF7ACFB801B194B9842F5D90320F4E0E6
:100FD000052B09D0114B1A6A01218A431A621A6A39
:100FE00003318A431A62E1E70C4B1A6A04210A436F
:100FF0001A621A6A03390A431A62D7E7FFF78EFBAF
:101000000600064B1B6A9B0712D5FFF787FB801B68
:10101000064B9842F5D90320CFE0C04600100240AD
:10102000FFFFFEFFFFFFFBFF007000408813000082
:10103000012D33D02368DB0610D56369012B33D033
:10104000053351D1654A536B04218B435363536B72
:10105000F4318B43A169C9000B435363236A002B0E
:1010600000D1B0E05D4A51680C220A40082A00D144
:101070008AE0022B4FD0594A136859490B4013603C
:10108000FFF74CFB0400554B1B689B017AD5FFF71B
:1010900045FB001B0228F6D903208EE04F4AD36996
:1010A00050490B40D361C5E74C4B5A6B04210A43AE
:1010B0005A635A6B03390A435A63FFF72FFB050043
:1010C000464B5B6B9B0706D4FFF728FB401B0228AF
:1010D000F6D9032071E041494B6BF8229343A26992
:1010E000D20013434B63B9E73C4B5A6B04210A43CC
:1010F0005A635A6B03398A435A63FFF70FFB0500A3
:10110000364B5B6B9B07A9D5FFF708FB401B0228FA
:10111000F6D9032051E0314A136831490B4013607E
:10112000FFF7FCFA05002D4B1B689B0106D5FFF766
:10113000F5FA401B0228F6D903203EE0274BDA6A75
:101140000F218A43E16A0A43DA625A6826490A4053
:10115000A16A606A01430A435A60196880225204F6
:101160000A431A60FFF7DAFA04001C4B1B689B0164
:1011700006D4FFF7D3FA001B0228F6D903201CE09F
:1011800000201AE0002018E0012B1ED0134B5A68F3
:10119000D96A80235B021340606A834217D10F2310
:1011A0000B40E16A8B4214D1F0239B031A40A36ADF
:1011B0009A4210D1002000E0012002B070BD012051
:1011C000FBE70120F9E70020F7E70120F5E7012020
:1011D000F3E70120F1E70120EFE7C04600100240ED
:1011E000FFFFFFFEFFFFFFEFFFFFC2FF10B588B05C
:1011F00004AA164B13CB13C21B6813606A46144B28
:1012000013CB13C21B681360124B5A680C23134094
:10121000082B02D0104808B010BD910C07331940BC
:1012200004A8445C0B49C96A0B406946C95CD303F6
:1012300004D50948FEF744FF6043ECE763011B1B3C
:101240009801C01AC00000190002E4E73429000820
:10125000482900080010024000127A0070B504000E
:101260000D00002800D17EE0434B1A680123134093
:101270008B420AD240490B68012293432B430B60F7
:101280000B681A40AA4200D06FE023689A070ED577
:101290005B0705D5394A5168E023DB000B435360F7
:1012A000364A5368F0218B43A1680B43536023688F
:1012B000DB072DD56368012B1ED0022B22D02F4ACD
:1012C0001268920753D52D494A680320824313437D
:1012D0004B60FFF723FA0600284B5B680C221A408C
:1012E00063689B009A4213D0FFF718FA801B244BC7
:1012F0009842F1D9032035E0204A12689203E2D4E3
:1013000001202FE01D4A12689201DCD4012029E05F
:10131000194B1A6801231340AB4209D916490B68CF
:10132000012293432B430B600B681A40AA4220D141
:1013300023685B0706D5114A536812490B40E168E0
:101340000B435360FFF752FF0C4B5A6812090F23EF
:1013500013400D4AD35CD8400C4B18600020FFF7B7
:1013600099F9002070BD0120FCE70120FAE7012077
:10137000F8E70120F6E7C0460020024000100240D6
:1013800088130000FFF8FFFF242900080000002058
:1013900030B5036A046A0125AC4304628469EF3501
:1013A000AC43120122430A24A3430B43826103622C
:1013B00030BD000030B5036A1024A3430362846982
:1013C000036A054D2C4012032243A024A3430901C4
:1013D00019438261016230BDFF0FFFFF83687022F5
:1013E00093430B4307210B43836070473D23C35C4A
:1013F000012B22D13C330222C2540268D36801215E
:101400000B43D36003680F4A93420BD00E4A9342BA
:1014100008D00E4A934205D01A6801210A431A6087
:1014200000200BE0996807220A40062A07D01A68B4
:1014300001210A431A60002000E0012070470020CB
:10144000FCE7C046002C0140000400400040014081
:10145000704770477047704710B5040003681A69F9
:1014600092070FD5DA6892070CD5032252421A610F
:101470000123037703689B699B0763D0FFF7E9FFAC
:101480000023237723681A69520712D5DA685207B6
:101490000FD5052252421A610223237723689A69E5
:1014A000C0239B001A4253D02000FFF7D2FF002335
:1014B000237723681A69120710D5DA6812070DD549
:1014C000092252421A61042323772368DB699B07B0
:1014D00045D02000FFF7BDFF0023237723681A695A
:1014E000D20612D5DA68D2060FD5112252421A61FD
:1014F000082323772368DA69C0239B001A4235D07A
:101500002000FFF7A6FF0023237723681A69D2077C
:1015100002D5DA68D20730D423681A69120602D5D8
:10152000DA68120630D423681A69520602D5DA68DE
:10153000520630D423681A69920602D5DA689206F8
:1015400030D410BDFFF784FF2000FFF783FF97E73B
:101550002000FFF77DFF2000FFF77CFFA7E72000BA
:10156000FFF776FF2000FFF775FFB5E72000FFF7D4
:101570006FFF2000FFF76EFFC5E7022252421A619B
:101580002000FEF735FFC7E7812252421A61200092
:1015900000F049F9C7E7412252421A612000FFF7E3
:1015A0005AFFC7E7212252421A61200000F03AF99F
:1015B000C7E7000003681D4A904202D01C4A9042CF
:1015C00003D1702293434A681343184A90420ED0C5
:1015D000174A90420BD0174A904208D0164A9042C0
:1015E00005D0164A904202D0154A904203D1154ABE
:1015F0001340CA681343802293434A69134303602C
:101600008B68C3620B688362084B984208D00A4B10
:10161000984205D0094B984202D0094B984201D11B
:101620000B690363012343617047C046002C0140EE
:101630000004004000200040004001400044014000
:1016400000480140FFFCFFFF70B5041E26D03D237B
:10165000C35C002B1CD03D2502236355210001C92A
:10166000FFF7A8FF01234622A354083AA3540132EE
:10167000A3540132A3540132A3540132A3540132C2
:10168000A3540132A3540132A3546355002070BD0A
:101690003C330022C254FEF7CBFFDCE70120F6E723
:1016A00030B58468034D2C401B0213430B43234386
:1016B000836030BDFF00FFFF10B504003C23C35C16
:1016C000012B00D178E03C230122C25401330132C6
:1016D000C254026893683948034093600B68602BDA
:1016E00050D02AD8402B58D00CD9502B23D1CA68BF
:1016F00049682068FFF74CFE50212068FFF76EFE16
:10170000002005E0202B0ED009D9302B0BD0012072
:101710003D230122E254013B0022E25410BD002B84
:1017200001D0102B05D119002068FFF757FE0020CB
:10173000EEE70120ECE70120EAE780225201934224
:1017400036D08022920193420DD1CB684A688968D5
:101750002068FFF7A5FF226891688023DB010B4317
:1017600093600020D4E7702B24D1CB684A68896845
:101770002068FFF795FF2268936877210B439360F9
:101780000020C5E7CA6849682068FFF713FE60219A
:101790002068FFF723FE0020BAE7CA68496820687E
:1017A000FFF7F6FD40212068FFF718FE0020AFE7A5
:1017B0000020ADE70120ABE70220AFE78800FFFF84
:1017C00030B53C23C35C012B24D03C230122C254FE
:1017D00001330132C25403685A689C687025AA43D9
:1017E0000D682A435A6003680B4A934205D00B4A9E
:1017F000934202D00A4A934204D1802294434A6819
:1018000014439C603D230122C254013B0022C25478
:10181000002030BD0220FCE7002C01400004004005
:1018200000400140704770470D4885460D480E49FD
:101830000E4A002302E0D458C4500433C4188C422A
:10184000F9D30B4A0B4C002301E013600432A2428F
:10185000FBD3FEF71DFF00F011F8FEF78BFEFEE74D
:1018600000200020000000203C040020902A0008F6
:101870003C040020F0040020FEE7000070B50C4D91
:101880000C4E761BB61005D0002408CD01349847C5
:10189000A642FAD101F03AF8074D084E761BB61071
:1018A00005D0002408CD01349847A642FAD170BD76
:1018B000842A0008842A0008842A00088C2A000848
:1018C000F0B50500830749D0541E002A45D0030017
:1018D0000326CAB202E00135013C3ED301332A702F
:1018E0003342F8D1032C30D9FF220A4015021543A8
:1018F0002A0415430F2C34D92700103F3F093E011D
:10190000B4461E001A001036664415605560956096
:10191000D5601032B242F8D101373F01DB190F27F1
:101920000C22274022403C00002A0ED03E1FB60861
:10193000B400A4461A001C1D644420C2A242FCD17B
:1019400003240136B6009B193C40002C05D0C9B2D7
:101950001C19197001339C42FBD1F0BD0300140027
:10196000C0E72700E2E7C046034B10B5002B02D0CA
:10197000024800F01DF810BD0000000081190008A9
:1019800070B5074D074C641BA41005D0013CA300A3
:10199000EB589847002CF9D100F0BEFF70BDC0464F
:1019A0008C2A0008902A00087047C0467047C0463D
:1019B00010B5010000230022002000F001F810BD46
:1019C000F0B5D6464F464646C0B5264F82B0060013
:1019D0003868924698468946FFF7E6FF224B1B6817
:1019E0000193A423019A5B00D558002D2ED06C687A
:1019F0001F2C30DC002E0FD1631C6B604B46023471
:101A0000A40038686351FFF7D1FF002002B0E0BCAA
:101A1000BA46B146A846F0BD882251462800A30028
:101A2000EB189950873AA2408930FF300168114382
:101A300001608421404649005850022EDCD12B0021
:101A40008D33FF3319680A431A60D5E715004D3509
:101A5000FF35D550CBE73868FFF7A8FF012040429B
:101A6000D4E7C046380400205C290008FEE7C046E1
:101A700003685A0004D5802212061343C018704729
:101A80005B005B08FAE7C046F8B557464546DE46B8
:101A90004E469046E0B50700002924D04B1E9A46DA
:101AA000994600239B465B464B44DC0FE4186410C8
:101AB000E5007E193000FFF7DBFFA2450CD0404562
:101AC0000CD8280008303818FFF7D2FF01384045FD
:101AD0000AD2631C9B46E6E7404505D9A34502D0E0
:101AE000631E9946DFE700263000F0BCBB46B246D5
:101AF000A946A046F8BDC0460300012805D002282B
:101B000007D00020002B02D070470348FCE70348B1
:101B1000FAE70348F8E7C04605220008F921000863
:101B20001122000830B5234B050083B08C1E002B1A
:101B300026D0200001A900E000BF00281CD0019998
:101B40002200FFF7A1FF041E16D0FFF791FF636884
:101B5000A864012B2AD0201D002B23DBFFF788FF70
:101B60000023E8642B650368002B0FDBFFF780FF81
:101B70002861002003B030BD002309202B61F9E764
:101B80000D480E49091AC9100191D9E71801000F33
:101B9000FFF7B2FF2861431E984108234042984353
:101BA0000930E7E70123E8642B65DCE70023052023
:101BB0002B61DFE7000000009C290008842A000850
:101BC000036810B50400DA0705D49B070AD548302E
:101BD000FEF71CFB23685A070AD51A070FD5DB0648
:101BE00015D510BD4830FEF70DFB23685A07F4D415
:101BF0002000D030FEF70EFB23681A07EFD4200038
:101C00005130FF30FEF70AFB2368DB06E9D42000E1
:101C1000D130FF30FEF706FBE3E7C0460300006863
:101C2000002800D0C01870477047C04670B5040047
:101C30000D002000296CFFF775FF002811D12B6CD7
:101C40002A00636121000120236998470828F0D009
:101C5000072806D10020296CFFF7E6FF281DFEF7B4
:101C6000BBFA00F0A1FDC046F0B5CE46474680B5B0
:101C7000C368304C9846A5448369040016000431BB
:101C8000402205A8994600F097FD0023049325E023
:101C9000F022149B5200636104A97CA8039300F016
:101CA0008BFD2100280023697CAA98478A9B0500A8
:101CB000039315934B46019304AB0093220023003A
:101CC00031000120C047002822D1F0227CA9520017
:101CD00004A800F071FD0026082D22D1149B2000DD
:101CE00019000393FFF71EFF09360700F5B200281D
:101CF000CED0129B1021039315934B46019304AB56
:101D000000932200230001202943C047002800D06F
:101D100009273800F5239B009D44C0BCB946B04656
:101D2000F0BD072DF4D130001499FFF77DFF05A811
:101D3000FEF752FA2CFCFFFF70B5CB6BFAB00B64C8
:101D400005000E004022043103A800F035FD0123F8
:101D50005B42029306E029002B6902AA984704001F
:101D600008280AD1129B280019000193FFF7DAFE18
:101D70000028F0D009207AB070BD02A8FFF720FF3C
:101D8000062CF7D131002800FFF750FF10B5826113
:101D9000DA6BC1601A6419000022FFF765FF10BDFD
:101DA000436970B50B64C36804000D00002B13D1A8
:101DB0000A002369010002209847072805D0082857
:101DC0000FD129002000FFF731FF0020296CFFF719
:101DD0002BFF281DFEF700FA0122FFF745FF00F058
:101DE000E3FC00F0E1FCC046C36810B5002B05D051
:101DF000CB6B00220B64FFF737FF10BDFFF79CFF92
:101E0000FBE7C046012915D00AD8002B10D10F2AB4
:101E10000ED8920082185268009B00201A6006E0DB
:101E200001200339C9B288428041404201307047E5
:101E30000220FCE70120FAE700B585B003AB0A00F9
:101E4000009300210023FFF7DDFF039805B000BDDC
:101E5000012915D00AD8002B10D10F2A0ED8009BCB
:101E600092001B6882185360002006E001200339AD
:101E7000C9B2884280414042013070470220FCE7ED
:101E80000120FAE700B585B003AB039200930A0086
:101E900000230021FFF7DCFF05B000BD70B51A4C30
:101EA000D36BA544136405000C0019A8111D402232
:101EB00000F082FC01235B42189314E00C2118A867
:101EC00002AAFFF7DFFF210018A8A847002812D1B7
:101ED000069B18AA02A90830019398470600052816
:101EE0000AD0092807D0289B02A819000193FFF700
:101EF00019FE0028E2D0092618A8FFF761FE30007D
:101F000090239B009D4470BDC0FDFFFFF0B5574678
:101F10009246032245464E46DE4699461300E0B5FA
:101F20008846CD6C494689B00340009308CD06959C
:101F3000002900D180E01A0C1B040593022304A998
:101F40000B73FD3313409B004A73ED18009B022B6B
:101F500001D143469D6B43461B6DDB070FD55046B1
:101F600005A900F0A9FA002801D1082000E0092005
:101F700009B0F0BCBB46B246A946A046F0BD2F68EA
:101F8000002FECD008230340029300230193013378
:101F900054469B464646BA464B46022B49D02B88B0
:101FA0006F889A4604355A463B009343B26C0F2122
:101FB000904620009844FFF73FFF0023804506D855
:101FC00053465A469343434498429B415B42022204
:101FD0007F001740594652460A401743012F30D020
:101FE000022F4CD0002FC2D1009A002A02D0002B21
:101FF00000D09BE004352B689A46002BCCD1200002
:1020000005A9A24600F058FA0028B0D1019B002B88
:10201000ABD00F215046FFF70FFF0E2102005046B4
:10202000FFF730FF50460F21724AFFF72BFF0720C2
:102030009EE76F680835B6E71B02059304AB9A81EB
:1020400084E7009A002A49D1002B16D02B68DF0FB5
:102050006B689A1C00D18AE732005832049201332F
:1020600000D1B6E0281DFFF7D9FD3A00010004AB0E
:10207000300000E000BF00286CD10835BBE72A68BB
:10208000009957007F0800290DD1002B04D0029B36
:10209000002B72D0002F3CD0002A00DA0435013723
:1020A000BF00ED19A7E7336A0D2120009846FFF71E
:1020B000C3FE804501D02A68EEE7B36A9D42FAD19B
:1020C0000023F362043333632B1DB76273632B6801
:1020D000002B00DA87E001230193E0E70D212000C7
:1020E000376AFFF7A9FE8742C7D1B36A9D42C4D1C0
:1020F000B046A2462800FFF7BBFC0F210200504665
:10210000FFF7C0FE504642460021FFF7BBFE072006
:102110002EE7B046A2460D215046FFF78DFE4346FE
:10212000049A18625A6206209D6221E72800FFF790
:102130009FFC0435A246B5630400300000E000BFF8
:10214000002800D113E7504622000F21FFF79AFE26
:1021500007200DE7A2460D2104005046FFF76CFE54
:10216000B04633003062022C39D1049A2C33F2622B
:102170007362434606209D62FAE62B1D9A460023B1
:10218000984658339C4621004A46B4445446A946D2
:102190008A463D0003924746E0460EE04346200053
:1021A0000493FFF73BFD0022010004AB300000E088
:1021B00000BF01370434002804D1AF42EED14D46B0
:1021C000B046A8E72F004D46039B544699462A681F
:1021D00062E70D212000FFF72FFEB0463062434634
:1021E000049A5A62C5E7781C8000B046A2462818B7
:1021F00081E7C0460000000010B50023FFF786FE0F
:1022000010BDC04610B50123FFF780FE10BDC046CB
:1022100010B50223FFF77AFE10BDC046F0B5CE46DA
:10222000474680B5050014001E00C3B0032944D002
:1022300020D8002949D0012941D1130C1404984613
:10224000230C9946012E00D17AE0052E37D1444661
:102250004C44202C33D843460F2B00D8B5E04C46D5
:10226000002C00D0C2E04A46A96B20AF002A22D041
:1022700000247FE0042922D1002B20D1102A1ED86F
:10228000102203681A4200D0C7E020AF3800FDF7E3
:10229000CBFF012639000023AA6B3000984004428E
:1022A00001D001CA086001330431042BF5D1380094
:1022B000AA63FDF7B7FF002002E0032B1CD0022029
:1022C00043B0C0BCB946B046F0BD002BF7D10023E7
:1022D00001271604826B360C011D38009840064217
:1022E00001D001CA086001330431102BF5D1002060
:1022F000A304E5D4AA63E3E71404160C240C3319F1
:10230000102BDCD8082203681A4200D08CE020AFE2
:102310003800FDF785FFF600AB6B002C0AD0F61AEB
:10232000E400321F1C19BA181900096804339950C7
:10233000A342F9D13800AB63FDF770FF0020BFE77F
:1023400043464B44102BBAD843460F2BB7D82B68C3
:102350001E4206D00322280093432B604830FDF72D
:1023600053FF20AF3800FDF74FFF4A460024A96B0A
:10237000002A61D04346DB00FF180023D200C85872
:10238000F85004339A42FAD18918002C0FD06F46C6
:102390004046102800D2102000231038C000381802
:1023A000E200CF58C75004339342FAD1C918012E26
:1023B00041D04346A9630F2B45D9002C00D17AE7C1
:1023C0006846FDF727FF00207AE7102C46D9103C1D
:1023D00001222B681A4207D093430222280013439C
:1023E0002B604830FDF714FF002C39D004222B68F5
:1023F0001A422CD143460F2B03D820AF3800FDF7EB
:1024000007FF6F463800FDF707FF10224346A96B10
:10241000D21A002ABCDD20AFACE793430360D13071
:10242000FF30FDF701FF30E7934303605130FF3089
:10243000FDF7F6FE6BE720AF04313800A963FDF726
:10244000E1FE00203CE720A8FDF7E0FEB5E728000C
:1024500093432B60D030FDF7DFFECBE70024B7E7D6
:1024600043460F2B00D9FEE620AF3800FDF7D0FE23
:102470004A46A96B002A00D0FAE63800FDF7C6FEEE
:1024800000201DE7027A0300002A0BD1427A002ABD
:102490000FD0013A42724268111D41600321126857
:1024A000017202E0013A02720268100E12021A6012
:1024B0007047B020FCE7C046F0B54E46454657464B
:1024C000DE460023E0B587B003930F339846083B00
:1024D000994680231B0305000E009A463000FFF743
:1024E000D1FF0400B02800D1C1E0030629D50300C4
:1024F00042469343DBB2802B53D0902B3DD0A02B90
:102500006BD0B02B00D17EE0C02B00D195E0030052
:102510004A469343DBB2D02B0AD1534602400132E4
:102520001A43052301212800FFF778FE0028D5D0A3
:102530000924200007B0F0BCBB46B246A946A0461D
:10254000F0BDFF23820013401F1D05AB9B46009387
:102550000D22002300212800FFF754FC630639D424
:10256000059B9C4667445B460597009300230D221C
:1025700000212800FFF76CFCB0E7833B03400D2BE4
:10258000D6D005AF02400023002128000097FFF7B6
:1025900039FC00230D22002128000097FFF758FC8A
:1025A0009CE704023000FFF76DFF802720433F02C5
:1025B000B842BDD004010005020C00230021280010
:1025C000FFF72CFE0028B3D13C4200D186E701235F
:1025D000039383E7059BDF1BC5E7FF234A461B01E7
:1025E0001900824311410A001A40030702D58023D3
:1025F000DB011A43002300212800FFF70FFE00280B
:1026000000D16BE794E7B12845D0B22800D19FE014
:10261000B32855D0FC230340B42B00D188E74A46A9
:102620005346024001321A43012101232800FFF7DB
:10263000F5FD002800D151E77AE7C6284BD0C7281E
:102640005DD003004A469343DBB2C02B6CD0C82850
:1026500071D0C92800D06BE73000FFF713FFF023DB
:1026600002031B03134042460240013258E7039B1A
:102670000024002B00D05CE705AE0E2200212800CC
:102680000096FFF7BFFB00230F22002128000096D1
:10269000FFF7DEFB4DE73000FFF7F4FE021E00D12E
:1026A00046E7030041468B43DBB2002B00D03FE7F7
:1026B00000212800FFF7B2FD002800D10EE737E720
:1026C0003000FFF7DFFEF02302031B0313404246F6
:1026D00002400132A7E73000FFF7D4FEF0230203E7
:1026E0001B0313404246024001321A4303230321D5
:1026F0002800FFF793FD002800D1EFE618E730002F
:10270000FFF7C0FE021E00D112E7030041468B43D3
:10271000DBB2002B00D00BE704212800FFF77EFD81
:10272000002800D1DAE603E74346A0221C4001342A
:1027300012032243DAE73000FFF7A4FE434602000B
:102740009A43D2B210321840120301300243E8E635
:1027500005AB00939B460D22002300212800FFF7C4
:1027600051FB3000FFF78EFE03061AD57F27B03CE1
:10277000059B3840A0409C466044059030000734DB
:10278000FFF780FE0306F3D481217F2389008C4666
:102790000340A340059A62449B1805935B4600934F
:1027A000E4E60224F0E7C046062010B500F056F833
:1027B0000120FFF75BF9C046F0B5C64600B50F2A09
:1027C00041D903270D003E0005430C0003002E40B5
:1027D0002F423DD11500103D2D09A8462D01AC46D4
:1027E000844427681D001F6067685F60A7689F605A
:1027F000E7681034DF6010336545F2D145460F239A
:102800000C2401352D01491913404519144222D0D9
:102810008C59AC5104369C1B032CF9D8043B9B0803
:1028200001339B00ED18C91803231A40561E002AD5
:1028300006D00023CC5C1A00EC5401339642F9D147
:1028400080BCB846F0BD0500561E002AF1D1F7E75E
:102850000500561EEDE71A00F6E7C046164B70B5A8
:1028600004001D681F2821D8B7239B00EB58002BBC
:102870000DD082009B181A68002A08D0012A13D0B4
:10288000511C0DD0002119609047002070BD280018
:1028900000F028F822000100280000F00FF8F5E70A
:1028A000162301202B60F1E70020EFE7162301201B
:1028B0002B604042EAE7C0460C000020002370B5C0
:1028C000074D0400080011002B6000F017F8431CAE
:1028D00000D070BD2B68002BFBD02360F9E7C04609
:1028E000EC04002010B500F001F810BD58220120C2
:1028F000014B40421A607047EC040020582201202E
:10290000014B40421A607047EC040020F8B5C04605
:10291000F8BC08BC9E467047F8B5C046F8BC08BC79
:042920009E46704718
:10292400000000000000000001020304060708097B
:1029340002030405060708090A0B0C0D0E0F1010FC
:10294400000000000102030405060708090A0B0C35
:0C2954000D0E0F1000000000100000200D
:1029600080010181B0B0AB700000000074B2018141
:10297000B0AB30800000000080080181B0B0ABF047
:10298000000000003F020181B0AB30800000000079
:0C29900080060181B0B0ABF00000000038
:10299C00E0EEFF7FB0B0AA801CEFFF7F01000000CB
:1029AC00BCEFFF7FB0B0A880CCEFFF7FB0B0AA80A7
:1029BC00ECEFFF7F01000000ECEFFF7FB0B0A880D0
:1029CC00F4EFFF7F90FFFF7F98F0FF7F0100000086
:1029DC0048F1FF7FB0A90280DCF1FF7FB0B0A88086
:1029EC0030F2FF7F0100000038F2FF7FB0B0AA8008
:1029FC006CF2FF7F6CFFFF7F34F3FF7FAA3F3980BF
:102A0C0080F3FF7FB0B0A8808CF3FF7FB0B0AA80BA
:102A1C00CCF3FF7FB0B0A880E0F3FF7F0100000093
:102A2C0070F4FF7FAA0FB280D8F4FF7F40FFFF7FC6
:102A3C00BCF7FF7FB0B0A880D8F7FF7F3CFFFF7FCB
:102A4C0038FAFF7F0100000064FAFF7F38FFFF7F38
:102A5C004CFDFF7FB0B0A88054FDFF7F010000004B
:102A6C00F0FDFF7FB0B0AA8070FEFF7FB0B0A880F1
:082A7C0070FEFF7F0100000065
:082A8400691900084503000870
:042A8C001D0300081E
:102A900000127A0001000000040000001000002075
:102AA00000000000FC02002064030020CC03002092
:102AB0000000000000000000000000000000000016
:102AC0000000000000000000000000000000000006
:102AD00000000000000000000000000000000000F6
:102AE00000000000000000000000000000000000E6
:102AF00000000000000000000000000000000000D6
:102B000000000000000000000000000000000000C5
:102B100000000000000000000000000000000000B5
:102B200000000000000000000000000000000000A5
:102B30000000000000000000000000000000000095
:102B40000000000000000000010000000000000084
:102B50000E33CDAB34126DE6ECDE05000B00000049
:102B60000000000000000000000000000000000065
:102B70000000000000000000000000000000000055
:102B80000000000000000000000000000000000045
:102B90000000000000000000000000000000000035
:0C2EC0000000000000000000E8040020FA
:0400000508001829AE
:00000001FF
