:020000040800F2
:1000000000200020B9120008AD050008AF05000867
:1000100000000000000000000000000000000000E0
:10002000000000000000000000000000B105000812
:100030000000000000000000B3050008B50500083E
:100040000913000800000000091300080913000844
:100050000913000809130008091300080913000810
:100060000000000009130008091300080913000824
:100070000913000809130008091300080000000014
:100080000913000809130008000000000913000804
:1000900009130008091300080913000809130008D0
:1000A00009130008091300080913000809130008C0
:1000B000091300080000000000000000000000001C
:1000C000002243088B4274D303098B425FD3030A97
:1000D0008B4244D3030B8B4228D3030C8B420DD3AA
:1000E000FF22090212BA030C8B4202D31212090238
:1000F00065D0030B8B4219D300E0090AC30B8B4276
:1001000001D3CB03C01A5241830B8B4201D38B0323
:10011000C01A5241430B8B4201D34B03C01A5241C8
:10012000030B8B4201D30B03C01A5241C30A8B420B
:1001300001D3CB02C01A5241830A8B4201D38B02F6
:10014000C01A5241430A8B4201D34B02C01A52419A
:10015000030A8B4201D30B02C01A5241CDD2C3090C
:100160008B4201D3CB01C01A524183098B4201D388
:100170008B01C01A524143098B4201D34B01C01A73
:10018000524103098B4201D30B01C01A5241C308EB
:100190008B4201D3CB00C01A524183088B4201D35A
:1001A0008B00C01A524143088B4201D34B00C01A46
:1001B0005241411A00D20146524110467047FFE7B2
:1001C00001B5002000F006F802BDC0460029F7D0B6
:1001D00076E770477047C0460100343138C9043BA8
:1001E0009C461D60A646010020313CC990469946B8
:1001F000A246AB4601000831FCC941680068E546EB
:1002000000BDC0467047C0467047C0467047C046F4
:100210007047C0467047C0467047C0467047C046EA
:100220007047C0467047C0467047C04601B401A839
:1002300001B585B0FFB408A841464A4653465C461E
:1002400065463EC001A83EC80F98009000230CB43C
:1002500001A901F0B9FA109B12B0184701B401A826
:1002600001B585B0FFB408A841464A4653465C46EE
:1002700065463EC001A83EC80F98009000230CB40C
:1002800001A901F0D5FA109B12B0184701B401A8DA
:1002900001B585B0FFB408A841464A4653465C46BE
:1002A00065463EC001A83EC80F98009000230CB4DC
:1002B00001A901F0E1FA109B12B0184701B401A89E
:1002C00001B585B0FFB408A841464A4653465C468E
:1002D00065463EC001A83EC80F98009000230CB4AC
:1002E00001AB01F09BFA109B12B0184701B401A8B2
:1002F00001B585B0FFB408A841464A4653465C465E
:1003000065463EC001A83EC80F98009000230CB47B
:1003100001AA01F00BFB109B12B0184710B5064C58
:100320002378002B07D1054B002B02D0044800E0B6
:1003300000BF0123237010BD3C040020000000001A
:100340009C230008044B10B5002B03D0034904483C
:1003500000E000BF10BDC0460000000040040020C7
:100360009C230008F0B589B01422002103A800F0F6
:10037000EFFF184B596980208002014359615A6987
:1003800002400192019A5A69802109030A435A6185
:100390005B690B400293029BC027BF000E4D0022F9
:1003A0003900280000F062FC0126039690235B03CD
:1003B000049300240594902003A9C00500F090FB4D
:1003C000039704960594069403A9280000F088FB7F
:1003D00009B0F0BD001002400008004870B580264A
:1003E0007600094D01223100280000F03FFC074C47
:1003F000200000F02FF900223100280000F036FC28
:10040000200000F027F970BD00080048DC0500005E
:1004100072B6FEE700B585B00C22002101A800F0FD
:1004200097FF1748174B0360002343608360C36046
:100430000122026104214161037643768276C3760C
:10044000C221FF31C16103629E39FF394354826288
:1004500000F06AF900280FD10123019380235B018A
:10046000029380235B05039301A9054800F052FA2B
:10047000002803D105B000BDFFF7CAFFFFF7C8FF92
:100480005C0400200024014010B590B0302200210F
:1004900004A800F05DFF102410220021684600F03F
:1004A00057FF12230493113B0793099308940A946E
:1004B00001330C93A0239B030E9304A800F0DCFBF4
:1004C00000280ED107230093053B019300230293DC
:1004D00003930121684600F055FE002803D110B0B7
:1004E00010BDFFF795FFFFF793FF000010B500F078
:1004F0008FF8FFF7C9FFFFF735FFFFF78BFF0548C0
:1005000000F0D4F9034800F001FA034B1860FFF73C
:1005100065FFF7E75C0400205804002082B00A4B16
:10052000996901221143996199690A400092009AE0
:10053000DA69802149050A43DA61DB690B400193DE
:10054000019B02B07047C0460010024010B588B051
:1005500004001422002103A800F0FAFE2268114BC7
:100560009A4201D008B010BD0F4B996980208000DD
:10057000014399619A6902400192019A5A69802166
:1005800089020A435A615B690B400293029B022372
:100590000393013304937138FF3803A9C00500F0B9
:1005A0009FFADFE70024014000100240FEE7FEE76B
:1005B0007047704710B500F03BF810BD7047000061
:1005C00010B504000F4B1978FA208000FFF778FD72
:1005D00001000D4B1868FFF773FD00F065FA002865
:1005E0000DD1032C01D901200AE0013000222100A5
:1005F000404200F029FA054B1C60002000E0012079
:1006000010BDC046040000200000002008000020AB
:1006100010B5064A136810210B4313600020FFF742
:10062000CFFFFFF77BFF002010BDC0460020024037
:10063000034A1168034B1B785B1813607047C04670
:100640009C04002004000020014B18687047C0463D
:100650009C04002070B50400FFF7F6FF0500631C42
:1006600002D0044B1B78E418FFF7EEFF401BA042BA
:10067000FAD370BD0400002030B583B0040000231D
:1006800001930368996803220A40012A14D09968EB
:10069000224A114218D19A6801210A439A60204BDC
:1006A00018682049FFF70CFD0190019B002B15D025
:1006B000019B013B0193F8E71A68D2072BD4DA6853
:1006C0001204E4D5002024E0A36B10221343A3639B
:1006D000E36B0F3A1343E36301201AE0FFF7B4FF23
:1006E000050023681B68DB0712D4FFF7ADFF401B32
:1006F0000228F6D923681B68DB07F2D4A36B10220B
:100700001343A363E36B0F3A1343E363012000E059
:10071000002003B030BD0020FBE7C046170000807A
:100720000000002040420F0070B5041E00D1B4E06C
:10073000836B002B00D180E0A36BDB0600D5A6E025
:1007400022689168042005000D40084200D09EE018
:10075000A16B534B19400633FF331943A1639168D2
:1007600001330B40012B6ED0D36818218B43A16855
:100770000B43D360226813699B009B0861680B439D
:1007800013612268D36847490B40D360237E9B03E3
:10079000627ED2031343A17E4A031343A26A012A55
:1007A00058D0802252011343E26813432269022A7F
:1007B00052D02B432422A25C52001343E27E012A32
:1007C0004CD0E269C221FF318A4202D0216A0A4339
:1007D00013432168CA681A43CA60E26A8021490546
:1007E0008A420DD0012A0BD0022A09D0032A07D051
:1007F000042A05D0052A03D0062A01D0072A0AD1E7
:100800002068416907229143416120684169E56A96
:100810002A400A4342612268D26823490A409A4228
:100820002BD0A36B12229343023A1343A363E36BCF
:100830000F3A1343E36301202EE0C3633422835451
:10084000FFF784FE78E71368DB079AD4D3681B04AC
:1008500097D489E72A00A6E70425AAE7002903D14F
:10086000802252021343ACE7A26B20210A43A26309
:10087000E26B1F390A43E263A3E70023E363A36B40
:1008800003229343023A1343A363002004E0A36BC3
:1008900010221343A363012070BD0120FCE7C04672
:1008A000FDFEFFFF1902FEFFE7FF3F8310B50400C6
:1008B00003689B685B0723D43423C35C012B21D0DE
:1008C00034230122C254437E012B14D10020A36B98
:1008D0000D4A1A4080235B001343A3630023E363A4
:1008E0003422A3542368183A1A60226893680421BA
:1008F0000B43936010BDFFF7BFFE0028FAD1E6E777
:100900000220F7E70220F5E7FEF0FFFF0368186C0E
:100910007047000030B583B00400002301933433E6
:10092000C35C012B00D181E034230122C25403684F
:100930009A68520770D43E4A4868904253D09A6AE7
:1009400001200D68A84002439A62E36A80225205A2
:1009500093421ED0012B1CD0022B1AD0032B18D08F
:10096000042B16D0052B14D0062B12D0072B10D039
:1009700022685069072303408868984209D050696B
:10098000072398435061206842698D682B401343C8
:1009900043610B681A00103A012A01D9002040E097
:1009A000244A1268102B09D08023DB031343214A09
:1009B00013600B68102B04D0002032E080231B044E
:1009C000F4E71D4B18681D49FFF77AFB83001B18DD
:1009D0005B00019302E0019B013B0193019B002B13
:1009E000F9D100201DE09A6A01200D68A8408243D9
:1009F0009A620B681A00103A012A01D9002010E00F
:100A00000C4A1268102B05D00D4B1340094A136095
:100A1000002006E00B4BF8E7836B2022134383632F
:100A2000012034230022E25403B030BD0220FBE752
:100A300001100000082701400000002040420F0084
:100A4000FFFFBFFFFFFF7FFF70B5002811DB8308AA
:100A5000134EC0339B009D5903242040C000FF2249
:100A600014008440A54389010A4082402A439A51D8
:100A700070BD0F230340083B9B0806339B00094AC7
:100A8000944663445C6803221040C000FC321500A9
:100A90008540AC4389010A40824022435A60E7E71F
:100AA00000E100E000ED00E0013880235B049842A3
:100AB0000FD2094A50600948036A1B021B0AC02171
:100AC00009060B4303620023936007331360002081
:100AD00070470120FCE7C04610E000E000ED00E0B8
:100AE000F0B583B0002357E084685F000326BE4062
:100AF000B4432600CC68BC403443846044689443CB
:100B00004A681609012232409A402243426053E06B
:100B1000DC080834A400265805321A4092000F273A
:100B20009740BE430F6997403A003243225057E046
:100B3000032600E00026A64034003C430232920027
:100B4000444E9451444A1468EA432600AE434F6829
:100B5000FF0301D52C4326003F4C26606468260025
:100B600016404F68BF0301D52C4326003A4C6660FF
:100B7000A468260016404F68FF0201D52C432600CA
:100B8000354CA660E46822404E68B60201D52A00C2
:100B90002243314CE26001330C682200DA4057D026
:100BA00001229A40250015401442F4D003244E68D7
:100BB0003440013C012C97D903224C682240032A7F
:100BC00009D0C2685E000324B440A24314008A68BE
:100BD000B2402243C26003224C682240022A97D0CE
:100BE00004685E0003221700B740BC434F683A40D8
:100BF000B24022430260C02292024C681442CAD022
:100C0000164CA66901221643A661A46922400192EE
:100C1000019A9A08941CA4000E4EA75903241C4064
:100C2000A4000F26A640B7439026F605B04281D017
:100C30000B4EB04208D00B4EB04207D00A4EB04225
:100C400000D175E7052676E7012674E7022672E7EC
:100C500003B0F0BD0000014000040140001002405C
:100C60000004004800080048000C0048002A01D099
:100C7000816170478162FCE770B582B0041E00D1CB
:100C80002EE20368DB0726D5AE4B5A680C231340CF
:100C9000042B18D0AB4B5A680C231340082B0ED0F2
:100CA0006368012B3CD0002B51D1A64B1A68A64992
:100CB0000A401A601A68A5490A401A6036E0A14B3A
:100CC0005B68DB03ECD59F4B1B689B0303D5636814
:100CD000002B00D107E223689B0772D5994B5B6814
:100CE0000C221A425DD0974B5A680C231340082BF4
:100CF00053D0E368002B00D185E0924A13680121AC
:100D00000B431360FFF7A0FC05008E4B1B689B078D
:100D100070D4FFF799FC401B0228F6D90320E0E1CC
:100D2000884A116880235B020B4313606368002BC1
:100D300025D0FFF789FC0500824B1B689B03CAD4B2
:100D4000FFF782FC401B6428F6D90320C9E1052B7C
:100D500009D07C4B1A687C490A401A601A687B49A2
:100D60000A401A60E2E7774B19688022D2020A43F0
:100D70001A601968802252020A431A60D6E7FFF708
:100D800063FC05006F4B1B689B03A4D5FFF75CFC5D
:100D9000401B6428F6D90320A3E16A4B5B68DB03A0
:100DA000A7D4684B1B689B0703D5E368012B00D0D1
:100DB0009BE164490B68F82293432269D2001343F4
:100DC0000B6023681B0744D5E369002B2ED05D4AD6
:100DD000536A01210B435362FFF736FC0500594B60
:100DE0005B6A9B0735D4FFF72FFC401B0228F6D91E
:100DF000032076E153490B68F82293432269D2001D
:100E000013430B60DDE74F4A136801218B431360E6
:100E1000FFF71AFC05004B4B1B689B07D1D5FFF76A
:100E200013FC401B0228F6D903205AE1454A536AB5
:100E300001218B435362FFF707FC0500414B5B6ABE
:100E40009B0706D5FFF700FC401B0228F6D90320BC
:100E500047E123685B0700D480E03A4BDB69DB00A5
:100E60001DD4384AD169802040050143D161D3693E
:100E700003400193019B0125354B1B68DB0510D511
:100E8000A368012B21D0002B36D12E4B1A6A0121E9
:100E90008A431A621A6A03318A431A621AE00025E9
:100EA000EAE72B4A116880235B000B431360FFF7CE
:100EB000CBFB0600264B1B68DB05E1D4FFF7C4FB28
:100EC000801B6428F6D903200BE11E4A136A012116
:100ED0000B431362A368002B24D0FFF7B5FB060079
:100EE000184B1B6A9B0737D4FFF7AEFB801B194BCF
:100EF0009842F5D90320F4E0052B09D0114B1A6A6A
:100F000001218A431A621A6A03318A431A62E1E7AD
:100F10000C4B1A6A04210A431A621A6A03390A43FB
:100F20001A62D7E7FFF790FB0600064B1B6A9B0788
:100F300012D5FFF789FB801B064B9842F5D9032099
:100F4000CFE0C04600100240FFFFFEFFFFFFFBFFA7
:100F50000070004088130000012D33D02368DB06A9
:100F600010D56369012B33D0053351D1654A536BDA
:100F700004218B435363536BF4318B43A169C90044
:100F80000B435363236A002B00D1B0E05D4A5168E4
:100F90000C220A40082A00D18AE0022B4FD0594A7D
:100FA000136859490B401360FFF74EFB0400554B83
:100FB0001B689B017AD5FFF747FB001B0228F6D977
:100FC00003208EE04F4AD36950490B40D361C5E7F7
:100FD0004C4B5A6B04210A435A635A6B03390A4338
:100FE0005A63FFF731FB0500464B5B6B9B0706D44A
:100FF000FFF72AFB401B0228F6D9032071E0414984
:101000004B6BF8229343A269D20013434B63B9E7B9
:101010003C4B5A6B04210A435A635A6B03398A4387
:101020005A63FFF711FB0500364B5B6B9B07A9D595
:10103000FFF70AFB401B0228F6D9032051E0314A92
:10104000136831490B401360FFF7FEFA05002D4B82
:101050001B689B0106D5FFF7F7FA401B0228F6D95B
:1010600003203EE0274BDA6A0F218A43E16A0A43F4
:10107000DA625A6826490A40A16A606A01430A4353
:101080005A601968802252040A431A60FFF7DCFA9A
:1010900004001C4B1B689B0106D4FFF7D5FA001B0C
:1010A0000228F6D903201CE000201AE0002018E0F6
:1010B000012B1ED0134B5A68D96A80235B02134060
:1010C000606A834217D10F230B40E16A8B4214D12F
:1010D000F0239B031A40A36A9A4210D1002000E03B
:1010E000012002B070BD0120FBE70120F9E70020DC
:1010F000F7E70120F5E70120F3E70120F1E7012000
:10110000EFE7C04600100240FFFFFFFEFFFFFFEFCA
:10111000FFFFC2FF10B588B004AA164B13CB13C251
:101120001B6813606A46144B13CB13C21B68136011
:10113000124B5A680C231340082B02D0104808B0F9
:1011400010BD910C0733194004A8445C0B49C96ACF
:101150000B406946C95CD30304D50948FEF7B0FFCC
:101160006043ECE763011B1B9801C01AC000001923
:101170000002E4E7C4230008D8230008001002405E
:1011800000127A0070B504000D00002800D17EE046
:10119000434B1A68012313408B420AD240490B6823
:1011A000012293432B430B600B681A40AA4200D0E4
:1011B0006FE023689A070ED55B0705D5394A516859
:1011C000E023DB000B435360364A5368F0218B4326
:1011D000A1680B4353602368DB072DD56368012B9F
:1011E0001ED0022B22D02F4A1268920753D52D49C8
:1011F0004A680320824313434B60FFF725FA060039
:10120000284B5B680C221A4063689B009A4213D0FB
:10121000FFF71AFA801B244B9842F1D9032035E0DE
:10122000204A12689203E2D401202FE01D4A12687E
:101230009201DCD4012029E0194B1A6801231340E4
:10124000AB4209D916490B68012293432B430B602B
:101250000B681A40AA4220D123685B0706D5114AC1
:10126000536812490B40E1680B435360FFF752FF8C
:101270000C4B5A6812090F2313400D4AD35CD84017
:101280000C4B18600020FFF79BF9002070BD012077
:10129000FCE70120FAE70120F8E70120F6E7C04665
:1012A000002002400010024088130000FFF8FFFFFA
:1012B000B4230008000000200D4885460D480E4963
:1012C0000E4A002302E0D458C4500433C4188C42A0
:1012D000F9D30B4A0B4C002301E013600432A24205
:1012E000FBD3FFF76BF900F011F8FFF7FFF8FEE70B
:1012F00000200020000000203C04002020250008E1
:101300003C040020A8040020FEE7000070B50C4D4E
:101310000C4E761BB61005D0002408CD013498473A
:10132000A642FAD101F03AF8074D084E761BB610E6
:1013300005D0002408CD01349847A642FAD170BDEB
:101340001425000814250008142500081C25000891
:10135000F0B50500830749D0541E002A45D003008C
:101360000326CAB202E00135013C3ED301332A70A4
:101370003342F8D1032C30D9FF220A40150215431D
:101380002A0415430F2C34D92700103F3F093E0192
:10139000B4461E001A00103666441560556095600C
:1013A000D5601032B242F8D101373F01DB190F2767
:1013B0000C22274022403C00002A0ED03E1FB608D7
:1013C000B400A4461A001C1D644420C2A242FCD1F1
:1013D00003240136B6009B193C40002C05D0C9B24D
:1013E0001C19197001339C42FBD1F0BD030014009D
:1013F000C0E72700E2E7C046034B10B5002B02D040
:10140000024800F01DF810BD000000001114000893
:1014100070B5074D074C641BA41005D0013CA30018
:10142000EB589847002CF9D100F0BEFF70BDC046C4
:101430001C250008202500087047C0467047C0469C
:1014400010B5010000230022002000F001F810BDBB
:10145000F0B5D6464F464646C0B5264F82B0060088
:101460003868924698468946FFF7E6FF224B1B688C
:101470000193A423019A5B00D558002D2ED06C68EF
:101480001F2C30DC002E0FD1631C6B604B460234E6
:10149000A40038686351FFF7D1FF002002B0E0BC20
:1014A000BA46B146A846F0BD882251462800A3009E
:1014B000EB189950873AA2408930FF3001681143F8
:1014C00001608421404649005850022EDCD12B0097
:1014D0008D33FF3319680A431A60D5E715004D357F
:1014E000FF35D550CBE73868FFF7A8FF0120404211
:1014F000D4E7C04638040020EC230008FEE7C046CD
:1015000003685A0004D5802212061343C01870479E
:101510005B005B08FAE7C046F8B557464546DE462D
:101520004E469046E0B50700002924D04B1E9A464F
:10153000994600239B465B464B44DC0FE41864103D
:10154000E5007E193000FFF7DBFFA2450CD04045D7
:101550000CD8280008303818FFF7D2FF0138404572
:101560000AD2631C9B46E6E7404505D9A34502D055
:10157000631E9946DFE700263000F0BCBB46B2464A
:10158000A946A046F8BDC0460300012805D00228A0
:1015900007D00020002B02D070470348FCE7034827
:1015A000FAE70348F8E7C046951C0008891C0008C4
:1015B000A11C000830B5234B050083B08C1E002B06
:1015C00026D0200001A900E000BF00281CD001990E
:1015D0002200FFF7A1FF041E16D0FFF791FF6368FA
:1015E000A864012B2AD0201D002B23DBFFF788FFE6
:1015F0000023E8642B650368002B0FDBFFF780FFF7
:101600002861002003B030BD002309202B61F9E7D9
:101610000D480E49091AC9100191D9E71801000FA8
:10162000FFF7B2FF2861431E9841082340429843C8
:101630000930E7E70123E8642B65DCE70023052098
:101640002B61DFE7000000002C24000814250008AF
:10165000036810B50400DA0705D49B070AD54830A3
:10166000FEF7D4FD23685A070AD51A070FD5DB0603
:1016700015D510BD4830FEF7C5FD23685A07F4D4D0
:101680002000D030FEF7C6FD23681A07EFD42000F3
:101690005130FF30FEF7C2FD2368DB06E9D420009D
:1016A000D130FF30FEF7BEFDE3E7C046030000681F
:1016B000002800D0C01870477047C04670B50400BD
:1016C0000D002000296CFFF775FF002811D12B6C4D
:1016D0002A00636121000120236998470828F0D07F
:1016E000072806D10020296CFFF7E6FF281DFEF72A
:1016F00073FD00F0A1FDC046F0B5CE46474680B56B
:10170000C368304C9846A544836904001600043130
:10171000402205A8994600F097FD0023049325E098
:10172000F022149B5200636104A97CA8039300F08B
:101730008BFD2100280023697CAA98478A9B05001D
:10174000039315934B46019304AB009322002300AF
:1017500031000120C047002822D1F0227CA952008C
:1017600004A800F071FD0026082D22D1149B200052
:1017700019000393FFF71EFF09360700F5B2002892
:10178000CED0129B1021039315934B46019304ABCB
:1017900000932200230001202943C047002800D0E5
:1017A00009273800F5239B009D44C0BCB946B046CC
:1017B000F0BD072DF4D130001499FFF77DFF05A887
:1017C000FEF70AFD2CFCFFFF70B5CB6BFAB00B6483
:1017D00005000E004022043103A800F035FD01236E
:1017E0005B42029306E029002B6902AA9847040095
:1017F00008280AD1129B280019000193FFF7DAFE8E
:101800000028F0D009207AB070BD02A8FFF720FFB1
:10181000062CF7D131002800FFF750FF10B5826188
:10182000DA6BC1601A6419000022FFF765FF10BD72
:10183000436970B50B64C36804000D00002B13D11D
:101840000A002369010002209847072805D00828CC
:101850000FD129002000FFF731FF0020296CFFF78E
:101860002BFF281DFEF7B8FC0122FFF745FF00F013
:10187000E3FC00F0E1FCC046C36810B5002B05D0C6
:10188000CB6B00220B64FFF737FF10BDFFF79CFF07
:10189000FBE7C046012915D00AD8002B10D10F2A2A
:1018A0000ED8920082185268009B00201A6006E051
:1018B00001200339C9B2884280414042013070475B
:1018C0000220FCE70120FAE700B585B003AB0A006F
:1018D000009300210023FFF7DDFF039805B000BD52
:1018E000012915D00AD8002B10D10F2A0ED8009B41
:1018F00092001B6882185360002006E00120033923
:10190000C9B2884280414042013070470220FCE762
:101910000120FAE700B585B003AB039200930A00FB
:1019200000230021FFF7DCFF05B000BD70B51A4CA5
:10193000D36BA544136405000C0019A8111D4022A7
:1019400000F082FC01235B42189314E00C2118A8DC
:1019500002AAFFF7DFFF210018A8A847002812D12C
:10196000069B18AA02A9083001939847060005288B
:101970000AD0092807D0289B02A819000193FFF775
:1019800019FE0028E2D0092618A8FFF761FE3000F2
:1019900090239B009D4470BDC0FDFFFFF0B55746EE
:1019A0009246032245464E46DE4699461300E0B570
:1019B0008846CD6C494689B00340009308CD069512
:1019C000002900D180E01A0C1B040593022304A90E
:1019D0000B73FD3313409B004A73ED18009B022BE1
:1019E00001D143469D6B43461B6DDB070FD5504627
:1019F00005A900F0A9FA002801D1082000E009207B
:101A000009B0F0BCBB46B246A946A046F0BD2F685F
:101A1000002FECD0082303400293002301930133ED
:101A200054469B464646BA464B46022B49D02B8825
:101A30006F889A4604355A463B009343B26C0F2197
:101A4000904620009844FFF73FFF0023804506D8CA
:101A500053465A469343434498429B415B42022279
:101A60007F001740594652460A401743012F30D095
:101A7000022F4CD0002FC2D1009A002A02D0002B96
:101A800000D09BE004352B689A46002BCCD1200077
:101A900005A9A24600F058FA0028B0D1019B002BFE
:101AA000ABD00F215046FFF70FFF0E21020050462A
:101AB000FFF730FF50460F21724AFFF72BFF072038
:101AC0009EE76F680835B6E71B02059304AB9A8161
:101AD00084E7009A002A49D1002B16D02B68DF0F2B
:101AE0006B689A1C00D18AE73200583204920133A5
:101AF00000D1B6E0281DFFF7D9FD3A00010004AB84
:101B0000300000E000BF00286CD10835BBE72A6830
:101B1000009957007F0800290DD1002B04D0029BAB
:101B2000002B72D0002F3CD0002A00DA0435013798
:101B3000BF00ED19A7E7336A0D2120009846FFF793
:101B4000C3FE804501D02A68EEE7B36A9D42FAD110
:101B50000023F362043333632B1DB76273632B6876
:101B6000002B00DA87E001230193E0E70D2120003C
:101B7000376AFFF7A9FE8742C7D1B36A9D42C4D135
:101B8000B046A2462800FFF7BBFC0F2102005046DA
:101B9000FFF7C0FE504642460021FFF7BBFE07207C
:101BA0002EE7B046A2460D215046FFF78DFE434674
:101BB000049A18625A6206209D6221E72800FFF706
:101BC0009FFC0435A246B5630400300000E000BF6E
:101BD000002800D113E7504622000F21FFF79AFE9C
:101BE00007200DE7A2460D2104005046FFF76CFECA
:101BF000B04633003062022C39D1049A2C33F262A1
:101C00007362434606209D62FAE62B1D9A46002326
:101C1000984658339C4621004A46B4445446A94647
:101C20008A463D0003924746E0460EE043462000C8
:101C30000493FFF73BFD0022010004AB300000E0FD
:101C400000BF01370434002804D1AF42EED14D4625
:101C5000B046A8E72F004D46039B544699462A6894
:101C600062E70D212000FFF72FFEB04630624346A9
:101C7000049A5A62C5E7781C8000B046A24628182C
:101C800081E7C0460000000010B50023FFF786FE84
:101C900010BDC04610B50123FFF780FE10BDC04641
:101CA00010B50223FFF77AFE10BDC046F0B5CE4650
:101CB000474680B5050014001E00C3B0032944D078
:101CC00020D8002949D0012941D1130C1404984689
:101CD000230C9946012E00D17AE0052E37D14446D7
:101CE0004C44202C33D843460F2B00D8B5E04C464B
:101CF000002C00D0C2E04A46A96B20AF002A22D0B7
:101D000000247FE0042922D1002B20D1102A1ED8E4
:101D1000102203681A4200D0C7E020AF3800FEF757
:101D200083FA012639000023AA6B30009840044250
:101D300001D001CA086001330431042BF5D1380009
:101D4000AA63FEF76FFA002002E0032B1CD00220EA
:101D500043B0C0BCB946B046F0BD002BF7D100235C
:101D600001271604826B360C011D3800984006428C
:101D700001D001CA086001330431102BF5D10020D5
:101D8000A304E5D4AA63E3E71404160C240C331966
:101D9000102BDCD8082203681A4200D08CE020AF58
:101DA0003800FEF73DFAF600AB6B002C0AD0F61AAD
:101DB000E400321F1C19BA1819000968043399503D
:101DC000A342F9D13800AB63FEF728FA0020BFE741
:101DD00043464B44102BBAD843460F2BB7D82B6839
:101DE0001E4206D00322280093432B604830FEF7A2
:101DF0000BFA20AF3800FEF707FA4A460024A96B19
:101E0000002A61D04346DB00FF180023D200C858E7
:101E1000F85004339A42FAD18918002C0FD06F463B
:101E20004046102800D2102000231038C000381877
:101E3000E200CF58C75004339342FAD1C918012E9B
:101E400041D04346A9630F2B45D9002C00D17AE736
:101E50006846FEF7DFF900207AE7102C46D9103CDF
:101E600001222B681A4207D0934302222800134311
:101E70002B604830FEF7CCF9002C39D004222B68B7
:101E80001A422CD143460F2B03D820AF3800FEF75F
:101E9000BFF96F463800FEF7BFF910224346A96B21
:101EA000D21A002ABCDD20AFACE793430360D130E7
:101EB000FF30FEF7B9F930E7934303605130FF304C
:101EC000FEF7AEF96BE720AF04313800A963FEF7E7
:101ED00099F900203CE720A8FEF798F9B5E728001B
:101EE00093432B60D030FEF797F9CBE70024B7E798
:101EF00043460F2B00D9FEE620AF3800FEF788F9E5
:101F00004A46A96B002A00D0FAE63800FEF77EF9AF
:101F100000201DE7027A0300002A0BD1427A002A32
:101F20000FD0013A42724268111D416003211268CC
:101F3000017202E0013A02720268100E12021A6087
:101F40007047B020FCE7C046F0B54E4645465746C0
:101F5000DE460023E0B587B003930F339846083B75
:101F6000994680231B0305000E009A463000FFF7B8
:101F7000D1FF0400B02800D1C1E0030629D5030039
:101F800042469343DBB2802B53D0902B3DD0A02B05
:101F90006BD0B02B00D17EE0C02B00D195E00300C8
:101FA0004A469343DBB2D02B0AD15346024001325A
:101FB0001A43052301212800FFF778FE0028D5D019
:101FC0000924200007B0F0BCBB46B246A946A04693
:101FD000F0BDFF23820013401F1D05AB9B460093FD
:101FE0000D22002300212800FFF754FC630639D49A
:101FF000059B9C4667445B460597009300230D2292
:1020000000212800FFF76CFCB0E7833B03400D2B59
:10201000D6D005AF02400023002128000097FFF72B
:1020200039FC00230D22002128000097FFF758FCFF
:102030009CE704023000FFF76DFF802720433F023A
:10204000B842BDD004010005020C00230021280085
:10205000FFF72CFE0028B3D13C4200D186E70123D4
:10206000039383E7059BDF1BC5E7FF234A461B015C
:102070001900824311410A001A40030702D5802348
:10208000DB011A43002300212800FFF70FFE002880
:1020900000D16BE794E7B12845D0B22800D19FE08A
:1020A000B32855D0FC230340B42B00D188E74A461F
:1020B0005346024001321A43012101232800FFF751
:1020C000F5FD002800D151E77AE7C6284BD0C72894
:1020D0005DD003004A469343DBB2C02B6CD0C828C6
:1020E00071D0C92800D06BE73000FFF713FFF02351
:1020F00002031B03134042460240013258E7039B90
:102100000024002B00D05CE705AE0E220021280041
:102110000096FFF7BFFB00230F2200212800009646
:10212000FFF7DEFB4DE73000FFF7F4FE021E00D1A3
:1021300046E7030041468B43DBB2002B00D03FE76C
:1021400000212800FFF7B2FD002800D10EE737E795
:102150003000FFF7DFFEF02302031B03134042466B
:1021600002400132A7E73000FFF7D4FEF02302035C
:102170001B0313404246024001321A43032303214A
:102180002800FFF793FD002800D1EFE618E73000A4
:10219000FFF7C0FE021E00D112E7030041468B4349
:1021A000DBB2002B00D00BE704212800FFF77EFDF7
:1021B000002800D1DAE603E74346A0221C400134A0
:1021C00012032243DAE73000FFF7A4FE4346020081
:1021D0009A43D2B210321840120301300243E8E6AB
:1021E00005AB00939B460D22002300212800FFF73A
:1021F00051FB3000FFF78EFE03061AD57F27B03C57
:10220000059B3840A0409C46604405903000073450
:10221000FFF780FE0306F3D481217F2389008C46DB
:102220000340A340059A62449B1805935B460093C4
:10223000E4E60224F0E7C046062010B500F056F8A8
:102240000120FFF75BF9C046F0B5C64600B50F2A7E
:1022500041D903270D003E0005430C0003002E402A
:102260002F423DD11500103D2D09A8462D01AC4649
:10227000844427681D001F6067685F60A7689F60CF
:10228000E7681034DF6010336545F2D145460F230F
:102290000C2401352D01491913404519144222D04F
:1022A0008C59AC5104369C1B032CF9D8043B9B0879
:1022B00001339B00ED18C91803231A40561E002A4B
:1022C00006D00023CC5C1A00EC5401339642F9D1BD
:1022D00080BCB846F0BD0500561E002AF1D1F7E7D4
:1022E0000500561EEDE71A00F6E7C046164B70B51E
:1022F00004001D681F2821D8B7239B00EB58002B32
:102300000DD082009B181A68002A08D0012A13D029
:10231000511C0DD0002119609047002070BD28008D
:1023200000F028F822000100280000F00FF8F5E77F
:10233000162301202B60F1E70020EFE71623012090
:102340002B604042EAE7C0460C000020002370B535
:10235000074D0400080011002B6000F017F8431C23
:1023600000D070BD2B68002BFBD02360F9E7C0467E
:10237000A404002010B500F001F810BD582201207F
:10238000014B40421A607047A404002058220120EB
:10239000014B40421A607047A4040020F8B5C046C3
:1023A000F8BC08BC9E467047F8B5C046F8BC08BCEF
:0423B0009E4670478E
:1023B40000000000000000000102030406070809F1
:1023C40002030405060708090A0B0C0D0E0F101072
:1023D400000000000102030405060708090A0B0CAB
:0C23E4000D0E0F10000000001000002083
:1023F00080010181B0B0AB700000000074B20181B7
:10240000B0AB30800000000080080181B0B0ABF0BC
:10241000000000003F020181B0AB308000000000EE
:0C24200080060181B0B0ABF000000000AD
:10242C00E0EEFF7FB0B0AA801CEFFF7F0100000040
:10243C00BCEFFF7FB0B0A880CCEFFF7FB0B0AA801C
:10244C00ECEFFF7F01000000ECEFFF7FB0B0A88045
:10245C00F4EFFF7F90FFFF7F98F0FF7F01000000FB
:10246C0048F1FF7FB0A90280DCF1FF7FB0B0A880FB
:10247C0030F2FF7F0100000038F2FF7FB0B0AA807D
:10248C006CF2FF7F6CFFFF7F34F3FF7FAA3F398034
:10249C0080F3FF7FB0B0A8808CF3FF7FB0B0AA8030
:1024AC00CCF3FF7FB0B0A880E0F3FF7F0100000009
:1024BC0070F4FF7FAA0FB280D8F4FF7F40FFFF7F3C
:1024CC00BCF7FF7FB0B0A880D8F7FF7F3CFFFF7F41
:1024DC0038FAFF7F0100000064FAFF7F38FFFF7FAE
:1024EC004CFDFF7FB0B0A88054FDFF7F01000000C1
:1024FC00F0FDFF7FB0B0AA8070FEFF7FB0B0A88067
:08250C0070FEFF7F01000000DA
:08251400F9130008450300085B
:04251C001D03000893
:1025200000127A00010000000400000010000020EA
:1025300000000000FC02002064030020CC03002007
:10254000000000000000000000000000000000008B
:10255000000000000000000000000000000000007B
:10256000000000000000000000000000000000006B
:10257000000000000000000000000000000000005B
:10258000000000000000000000000000000000004B
:10259000000000000000000000000000000000003B
:1025A000000000000000000000000000000000002B
:1025B000000000000000000000000000000000001B
:1025C000000000000000000000000000000000000B
:1025D00000000000000000000100000000000000FA
:1025E0000E33CDAB34126DE6ECDE05000B000000BF
:1025F00000000000000000000000000000000000DB
:1026000000000000000000000000000000000000CA
:1026100000000000000000000000000000000000BA
:1026200000000000000000000000000000000000AA
:0C2950000000000000000000A0040020B7
:04000005080012B924
:00000001FF
